:10059B003F065B4F666D7D077F6F777C395E7971A8
:1005AB000002000000020000000100010001000831
:0C05BB000002000200040002000000002A
:10048800022600000240000002420000024600135B
:100498000244000B022407E4024800001C08000084
:1004A8000000000000000000000000000000000044
:1004B800000000000000000000001828001F001CB9
:1004C800001F001E001F001E001F001F001E001F2F
:0404D800001E001FE3
:1005C700EF1FAA0670011E4A6013E4FCFDC3ED94F9
:0D05D70026EC940250EA0DBD00010C80F0EE
:0105E40022F4
:1005E500D290D2910000D2900000C290000000008D
:0505F500C2910000228C
:1005FA00D2910000C2900000D2900000C291C29035
:01060A0022CD
:10056500120165249BF582740535F0F583E493FF4C
:10057500E4FEC291EF30E004D2908002C290000008
:1005850000D291EFC313FF0EBE08E7C29100000031
:0505950000C29000000F
:01059A00223E
:100413001205E57F401205751205FA1205E57FC244
:1004230012057590001A1205659000181205659063
:10043300000E12056590000C12056590000A120566
:10044300659000081205659000141205659000166A
:10045300120565900004120565900012120565905F
:10046300001012056590000612056512013A120587
:10047300689000021205651205FA1205E57F8C12D9
:0504830005750205FAF9
:10052D007F0830B00930B10630B20320B32920B0B6
:10053D00047F01801320B1047F02800C20B2047F60
:10054D0003800520B3117F04EF600C30B0FD30B196
:07055D00FA30B2F730B3F4ED
:010564002274
:10060B00758902758C9C758A9CD2AFD2A9D28C222B
:1004DD00784A7C007D007BFF7A0579AB7E007F1C1E
:1004ED001200DE12060B7F0D7E00C3740D9F25E0FA
:1004FD002408F8E6FC08E6FDEF25E0244AF8A604FA
:10050D0008A605EF1F70011EBEFFDFBFFFDC7B00DD
:10051D007A00794A1204137F0A7E001205C780C63D
:03000B000201F2FD
:1001F200C0E0C0F0C0D075D000C000C004C005C0CF
:1002020006C0070549E5497002054864044548608F
:1002120003020376B2B7B2B5F548F5490527E527DB
:1002220070020526643C45267063F526F5270541D4
:10023200E54170020540643C45407051F540F5418E
:100242000543E5437002054264184542703FF5429A
:10025200F5430547E54770020546E54525E02428B4
:10026200F8E6FE08E6B54725E546B50620754600E0
:100272007547000545E54570020544640C45447028
:100282000CF544F5450525E52570020524AE26AF9B
:10029200277C007D0A1201048C088D09AE26AF2747
:1002A2007C007D0A1201048E0A8F0BAE40AF417CA6
:1002B200007D0A1201048C0C8D0DAE40AF417C0012
:1002C2007D0A1201048E0E8F0FAE42AF437C007D79
:1002D2000A1201048C108D11AE42AF437C007D0ADC
:1002E2001201048E128F13AE46AF477C007D0A12B4
:1002F20001048C148D15AE46AF477C007D0A1201B5
:10030200048E168F17AE44AF457C007D0A1201049D
:100312008C188D19AE44AF457C007D0A1201048E03
:100322001A8F1BAE24AF257C007D0A1201048C1C9F
:100332008D1DAE24AF257C007D0A1201047C007D58
:100342000A1201048C1E8D1FAE24AF257C007D6431
:100352001201047C007D0A1201048C208D21AE243E
:10036200AF257C037DE81201047C007D0A120104A2
:100372008C228D23D007D006D005D004D000D0D057
:05038200D0F0D0E032D4
:0300000002038771
:0C038700787FE4F6D8FD7581650203CE96
:10000E00E709F608DFFA8046E709F208DFFA803ED4
:10001E0088828C83E709F0A3DFFA8032E309F608C1
:10002E00DFFA8078E309F208DFFA807088828C8329
:10003E00E309F0A3DFFA806489828A83E0A3F608DD
:10004E00DFFA805889828A83E0A3F208DFFA804CB7
:10005E0080D280FA80C680D4806980F2803380108E
:10006E0080A680EA809A80A880DA80E280CA8033F7
:10007E0089828A83ECFAE493A3C8C582C8CCC5836F
:10008E00CCF0A3C8C582C8CCC583CCDFE9DEE7803F
:10009E000D89828A83E493A3F608DFF9ECFAA9F0BE
:1000AE00EDFB2289828A83ECFAE0A3C8C582C8CC14
:1000BE00C583CCF0A3C8C582C8CCC583CCDFEADE2D
:1000CE00E880DB89828A83E493A3F208DFF980CC8F
:1000DE0088F0EF60010E4E60C388F0ED2402B40488
:1000EE000050B9F582EB2402B4040050AF2323452F
:0600FE00822390005E73F6
:10010400C2D5EC30E709B2D5E4C39DFDE49CFCEE16
:1001140030E715B2D5E4C39FFFE49EFE12019DC3F0
:10012400E49DFDE49CFC800312019D30D507C3E4EB
:060134009FFFE49EFE2285
:10013A00BB010A89828A83E0F5F0A3E02250068790
:10014A00F009E71922BBFE07E3F5F009E319228952
:0B015A00828A83E493F5F07401932285
:10016500BB0110E58229F582E5833AF583E0F5F0D8
:10017500A3E0225009E92582F886F008E622BBFEB5
:100185000AE92582F8E2F5F008E222E5832AF583FB
:08019500E993F5F0A3E99322C0
:100393000204DDE493A3F8E493A34003F68001F29F
:1003A30008DFF48029E493A3F85407240CC8C3336B
:1003B300C4540F4420C8834004F456800146F6DF3A
:1003C300E4800B0102040810204080900488E47E3E
:1003D300019360BCA3FF543F30E509541FFEE4932F
:1003E300A360010ECF54C025E060A840B8E493A3F6
:1003F300FAE493A3F8E493A3C8C582C8CAC583CA21
:10040300F0A3C8C582C8CAC583CADFE9DEE780BED8
:0104DC00001F
:10019D00BC000BBE0029EF8DF084FFADF022E4CC46
:1001AD00F875F008EF2FFFEE33FEEC33FCEE9DEC0F
:1001BD00984005FCEE9DFE0FD5F0E9E4CEFD22ED55
:1001CD00F8F5F0EE8420D21CFEADF075F008EF2F9F
:1001DD00FFED33FD4007985006D5F0F222C398FD90
:0501ED000FD5F0EA222D
:00000001FF
