:100591003F065B4F666D7D077F6F777C395E7971B2
:1003E70002260000024000000242000002620013E1
:1003F7000260000B022407E4026400001C080000EE
:1004070000000000000000000000000000000000E5
:10041700000000000000000000001828001F001C5A
:10042700001F001E001F001E001F001F001E001FD0
:04043700001E001F84
:10052A00EF1FAA0670011E4A6013E4FCFDC3ED9496
:0D053A0026EC940250EA0DBD00010C80F08B
:010547002291
:10054800D290D2910000D2900000C290000000002A
:05055800C29100002229
:10057000D2910000C2900000D2900000C291C290BF
:010580002258
:1004F4001202592491F582740535F0F583E493FFD3
:10050400E4FEC291EF30E004D2908002C290000079
:1005140000D291EFC313FF0EBE08E7C291000000A2
:0505240000C290000080
:0105290022AF
:100372001205487F401205041205701205487FC21B
:1003820012050490001A1204F49000181204F4905A
:10039200000E1204F490000C1204F490000A1204ED
:1003A200F49000081204F49000141204F490001661
:1003B2001204F49000041204F49000121204F49057
:1003C20000101204F49000061204F412022E120419
:1003D200F79000021204F41205701205487F8C1285
:0503E200050402057096
:100484007F0830B00930B10630B20320B32920B060
:10049400047F01801320B1047F02800C20B2047F0A
:1004A40003800520B3117F04EF600C30B0FD30B140
:0704B400FA30B2F730B3F497
:0104BB00221E
:10058100758902758C9C758A9CD2AFD2A9D28C22B6
:04043C008F828E839A
:100440007C017D901201F8ED4C7005FA7B0180264D
:100450007C007D04AF82AE831201F8ED4C7014AEC7
:1004600083AF82FC7D641201F8ED4C60067A007B5C
:10047000018003E4FAFBEB64014A7004FE7F012271
:03048000E4FEFF98
:010483002256
:03000B0002000EE2
:10000E00C0E0C0F0C083C082C0D075D000C000C0B8
:10001E0002C003C004C005C006C0070565E56570D3
:10002E0002056464A07004E564640F60030201DFDE
:10003E00B2B7B2B5F564F5650527E527700205265A
:10004E00643C452660030200F8F526F5270541E5D8
:10005E004170020540643C454060030200F8F540E3
:10006E00F5410543E5437002054264184542707A36
:10007E00F542F5430563E56370020562AF25AE24D4
:10008E0012043CEF4E7008E561640245607028E58D
:10009E0063641D45627053F562F5630561E5617039
:1000AE00020560640C45607041F560F5610525E55B
:1000BE0025700205248033E56125E02428F8E6FE4C
:1000CE0008E6B56325E562B5062075620075630026
:1000DE000561E56170020560640C4560700CF560A9
:1000EE00F5610525E52570020524AE26AF277C00B7
:1000FE007D0A1201F88C088D09AE26AF277C007D93
:10010E000A1201F88E0A8F0BAE40AF417C007D0AB9
:10011E001201F88C0C8D0DAE40AF417C007D0A12A1
:10012E0001F88E0E8F0FAE42AF437C007D0A120196
:10013E00F88C108D11AE42AF437C007D0A1201F88F
:10014E008E128F13AE62AF637C007D0A1201F88CA3
:10015E00148D15AE62AF637C007D0A1201F88E1607
:10016E008F17AE60AF617C007D0A1201F88C188D7E
:10017E0019AE60AF617C007D0A1201F88E1A8F1BDA
:10018E00AE24AF257C007D0A1201F88C1C8D1DAEAD
:10019E0024AF257C007D0A1201F87C007D0A120135
:1001AE00F88C1E8D1FAE24AF257C007D641201F8E5
:1001BE007C007D0A1201F88C208D21AE24AF257CA7
:1001CE00037DE81201F87C007D0A1201F88C228D65
:1001DE0023D007D006D005D004D003D002D000D053
:0A01EE00D0D082D083D0F0D0E032F0
:1004BC007F0D7E00C3740D9F25E02408F8E6FC0830
:1004CC00E6FDEF25E02444F8A60408A605EF1F700E
:1004DC00011EC3EE940050DC7B007A0079441203B9
:0804EC00727F647E0002052A04
:10055D00120484EF3395E0F5688F6912058112045A
:03056D00BC80FB54
:030000000202E613
:0C02E600787FE4F6D8FD75816902032DD5
:1001F800C2D5EC30E709B2D5E4C39DFDE49CFCEE22
:1002080030E715B2D5E4C39FFFE49EFE120291C306
:10021800E49DFDE49CFC800312029130D507C3E401
:060228009FFFE49EFE2290
:10022E00BB010A89828A83E0F5F0A3E0225006879B
:10023E00F009E71922BBFE07E3F5F009E31922895D
:0B024E00828A83E493F5F07401932290
:10025900BB0110E58229F582E5833AF583E0F5F0E3
:10026900A3E0225009E92582F886F008E622BBFEC0
:100279000AE92582F8E2F5F008E222E5832AF58306
:08028900E993F5F0A3E99322CB
:1002F20002055DE493A3F8E493A34003F68001F2C0
:1003020008DFF48029E493A3F85407240CC8C3330C
:10031200C4540F4420C8834004F456800146F6DFDB
:10032200E4800B01020408102040809003E7E47E81
:10033200019360BCA3FF543F30E509541FFEE493D0
:10034200A360010ECF54C025E060A840B8E493A397
:10035200FAE493A3F8E493A3C8C582C8CAC583CAC2
:10036200F0A3C8C582C8CAC583CADFE9DEE780BE7A
:01043B0000C0
:10029100BC000BBE0029EF8DF084FFADF022E4CC51
:1002A100F875F008EF2FFFEE33FEEC33FCEE9DEC1A
:1002B100984005FCEE9DFE0FD5F0E9E4CEFD22ED60
:1002C100F8F5F0EE8420D21CFEADF075F008EF2FAA
:1002D100FFED33FD4007985006D5F0F222C398FD9B
:0502E1000FD5F0EA2238
:00000001FF
